{
  "_format": "hh-sol-artifact-1",
  "contractName": "YourCollectible",
  "sourceName": "contracts/YourCollectible.sol",
  "abi": [
    {
      "inputs": [
        {
          "internalType": "bytes32[]",
          "name": "assetsForSale",
          "type": "bytes32[]"
        }
      ],
      "stateMutability": "nonpayable",
      "type": "constructor"
    },
    {
      "anonymous": false,
      "inputs": [
        {
          "indexed": true,
          "internalType": "address",
          "name": "owner",
          "type": "address"
        },
        {
          "indexed": true,
          "internalType": "address",
          "name": "approved",
          "type": "address"
        },
        {
          "indexed": true,
          "internalType": "uint256",
          "name": "tokenId",
          "type": "uint256"
        }
      ],
      "name": "Approval",
      "type": "event"
    },
    {
      "anonymous": false,
      "inputs": [
        {
          "indexed": true,
          "internalType": "address",
          "name": "owner",
          "type": "address"
        },
        {
          "indexed": true,
          "internalType": "address",
          "name": "operator",
          "type": "address"
        },
        {
          "indexed": false,
          "internalType": "bool",
          "name": "approved",
          "type": "bool"
        }
      ],
      "name": "ApprovalForAll",
      "type": "event"
    },
    {
      "anonymous": false,
      "inputs": [
        {
          "indexed": true,
          "internalType": "address",
          "name": "from",
          "type": "address"
        },
        {
          "indexed": true,
          "internalType": "address",
          "name": "to",
          "type": "address"
        },
        {
          "indexed": true,
          "internalType": "uint256",
          "name": "tokenId",
          "type": "uint256"
        }
      ],
      "name": "Transfer",
      "type": "event"
    },
    {
      "inputs": [
        {
          "internalType": "address",
          "name": "to",
          "type": "address"
        },
        {
          "internalType": "uint256",
          "name": "tokenId",
          "type": "uint256"
        }
      ],
      "name": "approve",
      "outputs": [],
      "stateMutability": "nonpayable",
      "type": "function"
    },
    {
      "inputs": [
        {
          "internalType": "address",
          "name": "owner",
          "type": "address"
        }
      ],
      "name": "balanceOf",
      "outputs": [
        {
          "internalType": "uint256",
          "name": "",
          "type": "uint256"
        }
      ],
      "stateMutability": "view",
      "type": "function"
    },
    {
      "inputs": [],
      "name": "baseURI",
      "outputs": [
        {
          "internalType": "string",
          "name": "",
          "type": "string"
        }
      ],
      "stateMutability": "view",
      "type": "function"
    },
    {
      "inputs": [
        {
          "internalType": "bytes32",
          "name": "",
          "type": "bytes32"
        }
      ],
      "name": "forSale",
      "outputs": [
        {
          "internalType": "bool",
          "name": "",
          "type": "bool"
        }
      ],
      "stateMutability": "view",
      "type": "function"
    },
    {
      "inputs": [
        {
          "internalType": "uint256",
          "name": "tokenId",
          "type": "uint256"
        }
      ],
      "name": "getApproved",
      "outputs": [
        {
          "internalType": "address",
          "name": "",
          "type": "address"
        }
      ],
      "stateMutability": "view",
      "type": "function"
    },
    {
      "inputs": [
        {
          "internalType": "address",
          "name": "owner",
          "type": "address"
        },
        {
          "internalType": "address",
          "name": "operator",
          "type": "address"
        }
      ],
      "name": "isApprovedForAll",
      "outputs": [
        {
          "internalType": "bool",
          "name": "",
          "type": "bool"
        }
      ],
      "stateMutability": "view",
      "type": "function"
    },
    {
      "inputs": [
        {
          "internalType": "string",
          "name": "tokenURI",
          "type": "string"
        }
      ],
      "name": "mintItem",
      "outputs": [
        {
          "internalType": "uint256",
          "name": "",
          "type": "uint256"
        }
      ],
      "stateMutability": "payable",
      "type": "function"
    },
    {
      "inputs": [],
      "name": "name",
      "outputs": [
        {
          "internalType": "string",
          "name": "",
          "type": "string"
        }
      ],
      "stateMutability": "view",
      "type": "function"
    },
    {
      "inputs": [
        {
          "internalType": "uint256",
          "name": "tokenId",
          "type": "uint256"
        }
      ],
      "name": "ownerOf",
      "outputs": [
        {
          "internalType": "address",
          "name": "",
          "type": "address"
        }
      ],
      "stateMutability": "view",
      "type": "function"
    },
    {
      "inputs": [
        {
          "internalType": "address",
          "name": "from",
          "type": "address"
        },
        {
          "internalType": "address",
          "name": "to",
          "type": "address"
        },
        {
          "internalType": "uint256",
          "name": "amount",
          "type": "uint256"
        }
      ],
      "name": "platformFee",
      "outputs": [],
      "stateMutability": "payable",
      "type": "function"
    },
    {
      "inputs": [
        {
          "internalType": "address",
          "name": "from",
          "type": "address"
        },
        {
          "internalType": "address",
          "name": "to",
          "type": "address"
        },
        {
          "internalType": "uint256",
          "name": "tokenId",
          "type": "uint256"
        }
      ],
      "name": "safeTransferFrom",
      "outputs": [],
      "stateMutability": "nonpayable",
      "type": "function"
    },
    {
      "inputs": [
        {
          "internalType": "address",
          "name": "from",
          "type": "address"
        },
        {
          "internalType": "address",
          "name": "to",
          "type": "address"
        },
        {
          "internalType": "uint256",
          "name": "tokenId",
          "type": "uint256"
        },
        {
          "internalType": "bytes",
          "name": "_data",
          "type": "bytes"
        }
      ],
      "name": "safeTransferFrom",
      "outputs": [],
      "stateMutability": "nonpayable",
      "type": "function"
    },
    {
      "inputs": [
        {
          "internalType": "address",
          "name": "operator",
          "type": "address"
        },
        {
          "internalType": "bool",
          "name": "approved",
          "type": "bool"
        }
      ],
      "name": "setApprovalForAll",
      "outputs": [],
      "stateMutability": "nonpayable",
      "type": "function"
    },
    {
      "inputs": [
        {
          "internalType": "bytes4",
          "name": "interfaceId",
          "type": "bytes4"
        }
      ],
      "name": "supportsInterface",
      "outputs": [
        {
          "internalType": "bool",
          "name": "",
          "type": "bool"
        }
      ],
      "stateMutability": "view",
      "type": "function"
    },
    {
      "inputs": [],
      "name": "symbol",
      "outputs": [
        {
          "internalType": "string",
          "name": "",
          "type": "string"
        }
      ],
      "stateMutability": "view",
      "type": "function"
    },
    {
      "inputs": [
        {
          "internalType": "uint256",
          "name": "index",
          "type": "uint256"
        }
      ],
      "name": "tokenByIndex",
      "outputs": [
        {
          "internalType": "uint256",
          "name": "",
          "type": "uint256"
        }
      ],
      "stateMutability": "view",
      "type": "function"
    },
    {
      "inputs": [
        {
          "internalType": "address",
          "name": "owner",
          "type": "address"
        },
        {
          "internalType": "uint256",
          "name": "index",
          "type": "uint256"
        }
      ],
      "name": "tokenOfOwnerByIndex",
      "outputs": [
        {
          "internalType": "uint256",
          "name": "",
          "type": "uint256"
        }
      ],
      "stateMutability": "view",
      "type": "function"
    },
    {
      "inputs": [
        {
          "internalType": "uint256",
          "name": "tokenId",
          "type": "uint256"
        }
      ],
      "name": "tokenURI",
      "outputs": [
        {
          "internalType": "string",
          "name": "",
          "type": "string"
        }
      ],
      "stateMutability": "view",
      "type": "function"
    },
    {
      "inputs": [],
      "name": "totalSupply",
      "outputs": [
        {
          "internalType": "uint256",
          "name": "",
          "type": "uint256"
        }
      ],
      "stateMutability": "view",
      "type": "function"
    },
    {
      "inputs": [
        {
          "internalType": "address",
          "name": "from",
          "type": "address"
        },
        {
          "internalType": "address",
          "name": "to",
          "type": "address"
        },
        {
          "internalType": "uint256",
          "name": "tokenId",
          "type": "uint256"
        }
      ],
      "name": "transferFrom",
      "outputs": [],
      "stateMutability": "nonpayable",
      "type": "function"
    },
    {
      "inputs": [
        {
          "internalType": "bytes32",
          "name": "",
          "type": "bytes32"
        }
      ],
      "name": "uriToTokenId",
      "outputs": [
        {
          "internalType": "uint256",
          "name": "",
          "type": "uint256"
        }
      ],
      "stateMutability": "view",
      "type": "function"
    }
  ],
  "bytecode": "0x60806040523480156200001157600080fd5b50604051620023f0380380620023f0833981810160405260208110156200003757600080fd5b81019080805160405193929190846401000000008211156200005857600080fd5b9083019060208201858111156200006e57600080fd5b82518660208202830111640100000000821117156200008c57600080fd5b82525081516020918201928201910280838360005b83811015620000bb578181015183820152602001620000a1565b505050509050016040525050506040518060400160405280600f81526020016e596f7572436f6c6c65637469626c6560881b815250604051806040016040528060038152602001622ca1a160e91b815250620001246301ffc9a760e01b6200024560201b60201c565b815162000139906006906020850190620002e3565b5080516200014f906007906020840190620002e3565b506200016b6380ac58cd60e01b6001600160e01b036200024516565b62000186635b5e139f60e01b6001600160e01b036200024516565b620001a163780e9d6360e01b6001600160e01b036200024516565b505060408051808201909152601581527f68747470733a2f2f697066732e696f2f697066732f00000000000000000000006020820152620001eb906001600160e01b03620002ca16565b60005b81518110156200023d576001600b60008484815181106200020b57fe5b6020908102919091018101518252810191909152604001600020805460ff1916911515919091179055600101620001ee565b505062000388565b6001600160e01b03198082161415620002a5576040805162461bcd60e51b815260206004820152601c60248201527f4552433136353a20696e76616c696420696e7465726661636520696400000000604482015290519081900360640190fd5b6001600160e01b0319166000908152602081905260409020805460ff19166001179055565b8051620002df906009906020840190620002e3565b5050565b828054600181600116156101000203166002900490600052602060002090601f016020900481019282601f106200032657805160ff191683800117855562000356565b8280016001018555821562000356579182015b828111156200035657825182559160200191906001019062000339565b506200036492915062000368565b5090565b6200038591905b808211156200036457600081556001016200036f565b90565b61205880620003986000396000f3fe60806040526004361061012a5760003560e01c80636c0360eb116100ab578063ae374b991161006f578063ae374b991461048a578063b7416f2a146104b4578063b88d4fde146104de578063c7545849146105b1578063c87b56dd14610657578063e985e9c5146106815761012a565b80636c0360eb146103bc57806370a08231146103d157806395d89b4114610404578063a22cb46514610419578063ad03f88c146104545761012a565b806323b872dd116100f257806323b872dd146102a95780632f745c59146102ec57806342842e0e146103255780634f6ccce7146103685780636352211e146103925761012a565b806301ffc9a71461012f57806306fdde0314610177578063081812fc14610201578063095ea7b31461024757806318160ddd14610282575b600080fd5b34801561013b57600080fd5b506101636004803603602081101561015257600080fd5b50356001600160e01b0319166106bc565b604080519115158252519081900360200190f35b34801561018357600080fd5b5061018c6106df565b6040805160208082528351818301528351919283929083019185019080838360005b838110156101c65781810151838201526020016101ae565b50505050905090810190601f1680156101f35780820380516001836020036101000a031916815260200191505b509250505060405180910390f35b34801561020d57600080fd5b5061022b6004803603602081101561022457600080fd5b5035610776565b604080516001600160a01b039092168252519081900360200190f35b34801561025357600080fd5b506102806004803603604081101561026a57600080fd5b506001600160a01b0381351690602001356107d8565b005b34801561028e57600080fd5b506102976108b3565b60408051918252519081900360200190f35b3480156102b557600080fd5b50610280600480360360608110156102cc57600080fd5b506001600160a01b038135811691602081013590911690604001356108c4565b3480156102f857600080fd5b506102976004803603604081101561030f57600080fd5b506001600160a01b03813516906020013561091b565b34801561033157600080fd5b506102806004803603606081101561034857600080fd5b506001600160a01b0381358116916020810135909116906040013561094c565b34801561037457600080fd5b506102976004803603602081101561038b57600080fd5b5035610967565b34801561039e57600080fd5b5061022b600480360360208110156103b557600080fd5b5035610983565b3480156103c857600080fd5b5061018c6109b1565b3480156103dd57600080fd5b50610297600480360360208110156103f457600080fd5b50356001600160a01b0316610a12565b34801561041057600080fd5b5061018c610a7a565b34801561042557600080fd5b506102806004803603604081101561043c57600080fd5b506001600160a01b0381351690602001351515610adb565b6102806004803603606081101561046a57600080fd5b506001600160a01b03813581169160208101359091169060400135610be0565b34801561049657600080fd5b50610163600480360360208110156104ad57600080fd5b5035610c65565b3480156104c057600080fd5b50610297600480360360208110156104d757600080fd5b5035610c7a565b3480156104ea57600080fd5b506102806004803603608081101561050157600080fd5b6001600160a01b0382358116926020810135909116916040820135919081019060808101606082013564010000000081111561053c57600080fd5b82018360208201111561054e57600080fd5b8035906020019184600183028401116401000000008311171561057057600080fd5b91908080601f016020809104026020016040519081016040528093929190818152602001838380828437600092019190915250929550610c8c945050505050565b610297600480360360208110156105c757600080fd5b8101906020810181356401000000008111156105e257600080fd5b8201836020820111156105f457600080fd5b8035906020019184600183028401116401000000008311171561061657600080fd5b91908080601f016020809104026020016040519081016040528093929190818152602001838380828437600092019190915250929550610cea945050505050565b34801561066357600080fd5b5061018c6004803603602081101561067a57600080fd5b5035610e09565b34801561068d57600080fd5b50610163600480360360408110156106a457600080fd5b506001600160a01b038135811691602001351661108c565b6001600160e01b0319811660009081526020819052604090205460ff165b919050565b60068054604080516020601f600260001961010060018816150201909516949094049384018190048102820181019092528281526060939092909183018282801561076b5780601f106107405761010080835404028352916020019161076b565b820191906000526020600020905b81548152906001019060200180831161074e57829003601f168201915b505050505090505b90565b6000610781826110ba565b6107bc5760405162461bcd60e51b815260040180806020018281038252602c815260200180611f00602c913960400191505060405180910390fd5b506000908152600460205260409020546001600160a01b031690565b60006107e382610983565b9050806001600160a01b0316836001600160a01b031614156108365760405162461bcd60e51b8152600401808060200182810382526021815260200180611fb06021913960400191505060405180910390fd5b806001600160a01b03166108486110cd565b6001600160a01b031614806108695750610869816108646110cd565b61108c565b6108a45760405162461bcd60e51b8152600401808060200182810382526038815260200180611e536038913960400191505060405180910390fd5b6108ae83836110d1565b505050565b60006108bf600261113f565b905090565b6108d56108cf6110cd565b8261114a565b6109105760405162461bcd60e51b8152600401808060200182810382526031815260200180611fd16031913960400191505060405180910390fd5b6108ae8383836111ee565b6001600160a01b0382166000908152600160205260408120610943908363ffffffff61134c16565b90505b92915050565b6108ae83838360405180602001604052806000815250610c8c565b60008061097b60028463ffffffff61135816565b509392505050565b600061094682604051806060016040528060298152602001611eb5602991396002919063ffffffff61137416565b60098054604080516020601f600260001961010060018816150201909516949094049384018190048102820181019092528281526060939092909183018282801561076b5780601f106107405761010080835404028352916020019161076b565b60006001600160a01b038216610a595760405162461bcd60e51b815260040180806020018281038252602a815260200180611e8b602a913960400191505060405180910390fd5b6001600160a01b03821660009081526001602052604090206109469061113f565b60078054604080516020601f600260001961010060018816150201909516949094049384018190048102820181019092528281526060939092909183018282801561076b5780601f106107405761010080835404028352916020019161076b565b610ae36110cd565b6001600160a01b0316826001600160a01b03161415610b49576040805162461bcd60e51b815260206004820152601960248201527f4552433732313a20617070726f766520746f2063616c6c657200000000000000604482015290519081900360640190fd5b8060056000610b566110cd565b6001600160a01b03908116825260208083019390935260409182016000908120918716808252919093529120805460ff191692151592909217909155610b9a6110cd565b60408051841515815290516001600160a01b0392909216917f17307eab39ab6107e8899845ad3d59bd9653f200f220920489ca2b5937696c319181900360200190a35050565b80341015610c1f5760405162461bcd60e51b81526004018080602001828103825260218152602001806120026021913960400191505060405180910390fd5b80826001600160a01b0316846001600160a01b03167fddf252ad1be2c89b69c2b068fc378daa952ba7f163c4a11628f55a4df523b3ef60405160405180910390a4505050565b600b6020526000908152604090205460ff1681565b600c6020526000908152604090205481565b610c9d610c976110cd565b8361114a565b610cd85760405162461bcd60e51b8152600401808060200182810382526031815260200180611fd16031913960400191505060405180910390fd5b610ce48484848461138b565b50505050565b600080826040516020018082805190602001908083835b60208310610d205780518252601f199092019160209182019101610d01565b51815160209384036101000a60001901801990921691161790526040805192909401828103601f1901835284528151918101919091206000818152600b909252929020549194505060ff169150610daf9050576040805162461bcd60e51b815260206004820152600c60248201526b4e4f5420464f522053414c4560a01b604482015290519081900360640190fd5b6000818152600b60205260409020805460ff19169055610dcf600a6113dd565b6000610ddb600a6113e6565b9050610de733826113ea565b610df18185611524565b6000918252600c602052604090912081905592915050565b6060610e14826110ba565b610e4f5760405162461bcd60e51b815260040180806020018281038252602f815260200180611f81602f913960400191505060405180910390fd5b60008281526008602090815260409182902080548351601f6002600019610100600186161502019093169290920491820184900484028101840190945280845260609392830182828015610ee45780601f10610eb957610100808354040283529160200191610ee4565b820191906000526020600020905b815481529060010190602001808311610ec757829003601f168201915b505050505090506060610ef56109b1565b9050805160001415610f09575090506106da565b815115610fca5780826040516020018083805190602001908083835b60208310610f445780518252601f199092019160209182019101610f25565b51815160209384036101000a600019018019909216911617905285519190930192850191508083835b60208310610f8c5780518252601f199092019160209182019101610f6d565b6001836020036101000a03801982511681845116808217855250505050505090500192505050604051602081830303815290604052925050506106da565b80610fd485611587565b6040516020018083805190602001908083835b602083106110065780518252601f199092019160209182019101610fe7565b51815160209384036101000a600019018019909216911617905285519190930192850191508083835b6020831061104e5780518252601f19909201916020918201910161102f565b6001836020036101000a0380198251168184511680821785525050505050509050019250505060405160208183030381529060405292505050919050565b6001600160a01b03918216600090815260056020908152604080832093909416825291909152205460ff1690565b600061094660028363ffffffff61166216565b3390565b600081815260046020526040902080546001600160a01b0319166001600160a01b038416908117909155819061110682610983565b6001600160a01b03167f8c5be1e5ebec7d5bd14f71427d1e84f3dd0314c0f7b2291e5b200ac8c7c3b92560405160405180910390a45050565b6000610946826113e6565b6000611155826110ba565b6111905760405162461bcd60e51b815260040180806020018281038252602c815260200180611e27602c913960400191505060405180910390fd5b600061119b83610983565b9050806001600160a01b0316846001600160a01b031614806111d65750836001600160a01b03166111cb84610776565b6001600160a01b0316145b806111e657506111e6818561108c565b949350505050565b826001600160a01b031661120182610983565b6001600160a01b0316146112465760405162461bcd60e51b8152600401808060200182810382526029815260200180611f586029913960400191505060405180910390fd5b6001600160a01b03821661128b5760405162461bcd60e51b8152600401808060200182810382526024815260200180611e036024913960400191505060405180910390fd5b6112968383836108ae565b6112a16000826110d1565b6001600160a01b03831660009081526001602052604090206112c9908263ffffffff61166e16565b506001600160a01b03821660009081526001602052604090206112f2908263ffffffff61167a16565b506113056002828463ffffffff61168616565b5080826001600160a01b0316846001600160a01b03167fddf252ad1be2c89b69c2b068fc378daa952ba7f163c4a11628f55a4df523b3ef60405160405180910390a4505050565b6000610943838361169c565b60008080806113678686611700565b9097909650945050505050565b600061138184848461177b565b90505b9392505050565b6113968484846111ee565b6113a284848484611845565b610ce45760405162461bcd60e51b8152600401808060200182810382526032815260200180611dd16032913960400191505060405180910390fd5b80546001019055565b5490565b6001600160a01b038216611445576040805162461bcd60e51b815260206004820181905260248201527f4552433732313a206d696e7420746f20746865207a65726f2061646472657373604482015290519081900360640190fd5b61144e816110ba565b156114a0576040805162461bcd60e51b815260206004820152601c60248201527f4552433732313a20746f6b656e20616c7265616479206d696e74656400000000604482015290519081900360640190fd5b6114ac600083836108ae565b6001600160a01b03821660009081526001602052604090206114d4908263ffffffff61167a16565b506114e76002828463ffffffff61168616565b5060405181906001600160a01b038416906000907fddf252ad1be2c89b69c2b068fc378daa952ba7f163c4a11628f55a4df523b3ef908290a45050565b61152d826110ba565b6115685760405162461bcd60e51b815260040180806020018281038252602c815260200180611f2c602c913960400191505060405180910390fd5b600082815260086020908152604090912082516108ae92840190611d16565b6060816115ac57506040805180820190915260018152600360fc1b60208201526106da565b8160005b81156115c457600101600a820491506115b0565b60608167ffffffffffffffff811180156115dd57600080fd5b506040519080825280601f01601f191660200182016040528015611608576020820181803683370190505b50859350905060001982015b831561165957600a840660300160f81b8282806001900393508151811061163757fe5b60200101906001600160f81b031916908160001a905350600a84049350611614565b50949350505050565b600061094383836119c5565b600061094383836119dd565b60006109438383611aa3565b600061138184846001600160a01b038516611aed565b815460009082106116de5760405162461bcd60e51b8152600401808060200182810382526022815260200180611daf6022913960400191505060405180910390fd5b8260000182815481106116ed57fe5b9060005260206000200154905092915050565b8154600090819083106117445760405162461bcd60e51b8152600401808060200182810382526022815260200180611ede6022913960400191505060405180910390fd5b600084600001848154811061175557fe5b906000526020600020906002020190508060000154816001015492509250509250929050565b600082815260018401602052604081205482816118165760405162461bcd60e51b81526004018080602001828103825283818151815260200191508051906020019080838360005b838110156117db5781810151838201526020016117c3565b50505050905090810190601f1680156118085780820380516001836020036101000a031916815260200191505b509250505060405180910390fd5b5084600001600182038154811061182957fe5b9060005260206000209060020201600101549150509392505050565b6000611859846001600160a01b0316611b84565b611865575060016111e6565b606061198b630a85bd0160e11b61187a6110cd565b88878760405160240180856001600160a01b03166001600160a01b03168152602001846001600160a01b03166001600160a01b0316815260200183815260200180602001828103825283818151815260200191508051906020019080838360005b838110156118f35781810151838201526020016118db565b50505050905090810190601f1680156119205780820380516001836020036101000a031916815260200191505b5095505050505050604051602081830303815290604052906001600160e01b0319166020820180516001600160e01b038381831617835250505050604051806060016040528060328152602001611dd1603291396001600160a01b038816919063ffffffff611b8a16565b905060008180602001905160208110156119a457600080fd5b50516001600160e01b031916630a85bd0160e11b1492505050949350505050565b60009081526001919091016020526040902054151590565b60008181526001830160205260408120548015611a995783546000198083019190810190600090879083908110611a1057fe5b9060005260206000200154905080876000018481548110611a2d57fe5b600091825260208083209091019290925582815260018981019092526040902090840190558654879080611a5d57fe5b60019003818190600052602060002001600090559055866001016000878152602001908152602001600020600090556001945050505050610946565b6000915050610946565b6000611aaf83836119c5565b611ae557508154600181810184556000848152602080822090930184905584548482528286019093526040902091909155610946565b506000610946565b600082815260018401602052604081205480611b52575050604080518082018252838152602080820184815286546001818101895560008981528481209551600290930290950191825591519082015586548684528188019092529290912055611384565b82856000016001830381548110611b6557fe5b9060005260206000209060020201600101819055506000915050611384565b3b151590565b6060611381848460008585611b9e85611b84565b611bef576040805162461bcd60e51b815260206004820152601d60248201527f416464726573733a2063616c6c20746f206e6f6e2d636f6e7472616374000000604482015290519081900360640190fd5b60006060866001600160a01b031685876040518082805190602001908083835b60208310611c2e5780518252601f199092019160209182019101611c0f565b6001836020036101000a03801982511681845116808217855250505050505090500191505060006040518083038185875af1925050503d8060008114611c90576040519150601f19603f3d011682016040523d82523d6000602084013e611c95565b606091505b5091509150611ca5828286611cb0565b979650505050505050565b60608315611cbf575081611384565b825115611ccf5782518084602001fd5b60405162461bcd60e51b81526020600482018181528451602484015284518593919283926044019190850190808383600083156117db5781810151838201526020016117c3565b828054600181600116156101000203166002900490600052602060002090601f016020900481019282601f10611d5757805160ff1916838001178555611d84565b82800160010185558215611d84579182015b82811115611d84578251825591602001919060010190611d69565b50611d90929150611d94565b5090565b61077391905b80821115611d905760008155600101611d9a56fe456e756d657261626c655365743a20696e646578206f7574206f6620626f756e64734552433732313a207472616e7366657220746f206e6f6e20455243373231526563656976657220696d706c656d656e7465724552433732313a207472616e7366657220746f20746865207a65726f20616464726573734552433732313a206f70657261746f7220717565727920666f72206e6f6e6578697374656e7420746f6b656e4552433732313a20617070726f76652063616c6c6572206973206e6f74206f776e6572206e6f7220617070726f76656420666f7220616c6c4552433732313a2062616c616e636520717565727920666f7220746865207a65726f20616464726573734552433732313a206f776e657220717565727920666f72206e6f6e6578697374656e7420746f6b656e456e756d657261626c654d61703a20696e646578206f7574206f6620626f756e64734552433732313a20617070726f76656420717565727920666f72206e6f6e6578697374656e7420746f6b656e4552433732314d657461646174613a2055524920736574206f66206e6f6e6578697374656e7420746f6b656e4552433732313a207472616e73666572206f6620746f6b656e2074686174206973206e6f74206f776e4552433732314d657461646174613a2055524920717565727920666f72206e6f6e6578697374656e7420746f6b656e4552433732313a20617070726f76616c20746f2063757272656e74206f776e65724552433732313a207472616e736665722063616c6c6572206973206e6f74206f776e6572206e6f7220617070726f7665644e6f7420656e6f756768204554482073656e743b20636865636b20707269636521a264697066735822122017eb9479923ce749677238dfd1d0b64463d2e34f672eab3061073f7b59f2237e64736f6c63430006070033",
  "linkReferences": {},
  "deployedLinkReferences": {}
}